:020000040800F2
:1000000000000220910D0008D1050008D30500086A
:10001000D5050008D7050008D90500080000000034
:10002000000000000000000000000000DB050008E8
:10003000DD05000800000000DF050008E1050008FC
:10004000E10D0008E10D0008E10D0008E10D0008D8
:10005000E10D0008E10D0008E10D0008E10D0008C8
:10006000E10D0008E10D0008E10D0008E10D0008B8
:10007000E10D0008E10D0008E10D0008E10D0008A8
:10008000E10D0008E10D0008E10D0008E10D000898
:10009000E10D0008E10D0008E10D0008E10D000888
:1000A000E10D0008E10D0008E10D0008E10D000878
:1000B000E10D0008E10D0008E10D0008E10D000868
:1000C000E10D0008E10D0008E10D0008E10D000858
:1000D000E10D0008E10D0008E10D0008E10D000848
:1000E000E10D0008E10D0008E10D0008E10D000838
:1000F000E10D0008E10D0008E10D0008E10D000828
:10010000E10D0008E10D0008E10D0008E10D000817
:10011000E10D0008E10D0008E10D0008E10D000807
:10012000E10D0008E10D0008E10D0008E10D0008F7
:10013000E10D0008E10D0008E10D0008E10D0008E7
:10014000E10D0008E10D0008E10D0008E10D0008D7
:10015000E10D0008E10D0008E10D0008E10D0008C7
:10016000E10D0008E10D0008E10D0008E10D0008B7
:10017000E10D0008E10D0008E10D0008000000009D
:08018000E10D0008E10D00088B
:1001880010B5054C237833B9044B13B10448AFF3C9
:1001980000800123237010BD0C0000200000000027
:1001A8003C0E000808B5034B1BB103490348AFF3E5
:1001B800008008BD00000000100000203C0E000870
:1001C80053B94AB9002908BF00281CBF4FF0FF31B6
:1001D8004FF0FF3000F072B9ADF1080C6DE904CEB4
:1001E80000F006F8DDF804E0DDE9022304B070470A
:1001F8002DE9F047089E04468846002B4BD18A42D9
:10020800154667D9B2FA82F24AB1C2F1200701FA5B
:1002180002F320FA07F7954047EA030894404FEAAB
:10022800154E230CB8FBFEF71FFA85FC0EFB17884A
:1002380043EA084307FB0CF1994209D9EB1807F187
:10024800FF3080F01B81994240F21881023F2B4415
:100258005B1AA4B2B3FBFEF00EFB103344EA03446E
:1002680000FB0CFCA44509D92C1900F1FF3380F0E0
:100278000781A44540F2048102382C4440EA074033
:10028800A4EB0C0400271EB1D4400023C6E90043A8
:100298003946BDE8F0878B4209D9002E00F0EB8083
:1002A8000027C6E9000138463946BDE8F087B3FAA9
:1002B80083F7002F47D18B4202D3824200F2FA80A3
:1002C800841A61EB030301209846002EE0D0C6E9AA
:1002D8000048DDE702B9FFDEB2FA82F2002A40F0F8
:1002E8008F80491B4FEA154E1FFA85F80127B1FB8D
:1002F800FEFC230C0EFB1C1143EA014308FB0CF126
:10030800994207D9EB180CF1FF3002D2994200F25A
:10031800CD808446591AA3B2B1FBFEF00EFB10142F
:1003280043EA044408FB00F8A04507D92C1900F15A
:10033800FF3302D2A04500F2B6801846A4EB0804A9
:1003480040EA0C409FE7C7F1200CBB4022FA0CFEA4
:100358004EEA030E01FA07F420FA0CF521FA0CF321
:100368004FEA1E482543B3FBF8F92C0C08FB193358
:100378001FFA8EFA44EA034309FB0AF49C4202FA84
:1003880007F200FA07F10BD91EEB030309F1FF305E
:1003980080F087809C4240F28480A9F1020973446E
:1003A8001B1BADB2B3FBF8F008FB103345EA03445E
:1003B80000FB0AFAA24508D91EEB040400F1FF333A
:1003C8006BD2A24569D90238744440EA0940A0FBBF
:1003D8000289A4EB0A044C45C2464B4654D351D07B
:1003E800002E69D0B1EB0A0564EB030404FA0CFC97
:1003F800FD40FC404CEA0505C6E90054002747E7E4
:10040800C2F1200320FA03F7954001FA02F021FA1D
:1004180003F34FEA154E3843010CB3FBFEF71FFAFE
:1004280085F80EFB173341EA034107FB08F38B42BB
:1004380004FA02F407D9691807F1FF3C2FD28B425E
:100448002DD9023F2944CB1A81B2B3FBFEF00EFB33
:10045800103341EA034100FB08F38B4207D96918BE
:1004680000F1FF3C17D28B4215D902382944C91A2A
:1004780040EA07473BE73746304609E70746E7E6DD
:100488001846FBE64145ABD2B8EB020A69EB0E020F
:1004980001381346A4E76046E9E7184695E767463A
:1004A800D1E781467CE702382C4447E7ACF1020CDF
:1004B8002B442FE7384608E73746E9E6704700BF80
:1004C80072B6FEE700B595B03022002108A800F00A
:1004D800A9FC0023039304930593069307930193C0
:1004E800184A116C41F080511164126C02F080526C
:1004F8000192019A0293144A116841F480411160F3
:10050800126802F480420292029A022208920122A0
:100518000B9210220C920E9308A800F035F968B9D6
:100528000F2303930021049105910691079103A8D5
:1005380000F07AFB20B915B05DF804FBFFF7C0FFA7
:10054800FFF7BEFF003802400070004008B500F019
:1005580075F8FFF7B7FF0D4C4FF48051204600F0B7
:1005680009F94FF40051204600F004F94FF4804196
:10057800204600F0FFF84FF40041204600F0FAF85A
:100588004FF4FA7000F086F8E5E700BF000C02406F
:1005980082B0002100910B4B5A6C42F480425A649D
:1005A8005A6C02F480420092009A01911A6C42F04F
:1005B80080521A641B6C03F080530193019B02B0B4
:1005C800704700BF00380240FEE7FEE7FEE7FEE79F
:1005D800FEE770477047704708B500F049F808BD56
:1005E800034AD2F8883043F47003C2F88830704761
:1005F80000ED00E010B504460E4B18784FF47A73FE
:10060800B3FBF0F30C4A1068B0FBF3F000F09CF871
:1006180068B90F2C01D901200AE0002221464FF0C9
:10062800FF3000F05DF8034B5C60002000E0012023
:1006380010BD00BF040000200000002008B50B4BCF
:100648001A6842F400721A601A6842F480621A60EA
:100658001A6842F480721A60032000F02FF80F2005
:10066800FFF7C8FFFFF794FF002008BD003C0240D9
:10067800034A1168034B1B780B441360704700BF93
:100688002800002004000020014B1868704700BFB4
:100698002800002038B50446FFF7F6FF0546B4F1F8
:1006A800FF3F02D0044B1B781C44FFF7EDFF401BB3
:1006B800A042FAD338BD00BF04000020074AD3681F
:1006C80023F4E0631B041B0C000200F4E0601843F1
:1006D80040F0BF6040F40030D060704700ED00E0AB
:1006E80030B4174BDB68C3F30223C3F10704042CAF
:1006F80028BF04241D1D062D18D9033B4FF0FF35D4
:1007080005FA04F421EA0401994005FA03F322EA00
:100718000303194300280BDB0901C9B200F160404B
:1007280000F5614080F8001330BC70470023E5E70E
:1007380000F00F000901C9B2024B1954F4E700BFD9
:1007480000ED00E014ED00E00138B0F1807F0AD23E
:10075800064B5860064AF02182F823100020986062
:1007680007221A6070470120704700BF10E000E0C0
:1007780000ED00E0436901EA030221EA030141EACE
:100788000241816170470000002800F0E98170B5DE
:1007980082B00446036813F0010F3BD0A74B9B6857
:1007A80003F00C03042B2CD0A44B9B6803F00C0320
:1007B800082B21D06368B3F5803F4FD0B3F5A02F45
:1007C80052D09E4B1A6822F480321A601A6822F4BA
:1007D80080221A606368002B50D0FFF755FF05464A
:1007E800964B1B6813F4003F14D1FFF74DFF401BD5
:1007F8006428F5D90320B8E1904B5B6813F4800FA7
:10080800D8D08E4B1B6813F4003F03D06368002BCD
:1008180000F0A881236813F0020F55D0874B9B681E
:1008280013F00C0F3ED0854B9B6803F00C03082B8C
:1008380033D0E368002B68D0814B01221A60FFF7A0
:1008480023FF05467D4B1B6813F0020F54D1FFF7B9
:100858001BFF401B0228F5D9032086E1774A13685D
:1008680043F480331360B5E7744B1A6842F480226E
:100878001A601A6842F480321A60ABE7FFF704FF87
:1008880005466E4B1B6813F4003FC3D0FFF7FCFE10
:10089800401B6428F5D9032067E1684B5B6813F4B3
:1008A800800FC6D1654B1B6813F0020F04D0E368B4
:1008B800012B01D0012058E1604A136823F0F803A6
:1008C800216943EAC1031360236813F0080F40D07D
:1008D800636963B35B4B01221A60FFF7D5FE0546D7
:1008E800564B5B6F13F0020F33D1FFF7CDFE401B61
:1008F8000228F5D9032038E1504A136823F0F80399
:10090800216943EAC1031360DEE74D4B00221A60F8
:10091800FFF7BAFE0546494B1B6813F0020FD3D008
:10092800FFF7B2FE401B0228F5D903201DE1454B15
:1009380000221A60FFF7A8FE0546404B5B6F13F0D4
:10094800020F06D0FFF7A0FE401B0228F5D90320AE
:100958000BE1236813F0040F79D0384B1B6C13F0AC
:10096800805F33D100230193344B1A6C42F08052DC
:100978001A641B6C03F080530193019B0125324BD1
:100988001B6813F4807F23D0A368012B34D0052B78
:1009980038D02A4B1A6F22F001021A671A6F22F018
:1009A80004021A67A368002B36D0FFF76DFE0646CF
:1009B800224B1B6F13F0020F48D1FFF765FE801B17
:1009C80041F288339842F3D90320CEE00025D6E7D8
:1009D8001D4A136843F480731360FFF755FE0646FB
:1009E800194B1B6813F4807FCED1FFF74DFE801B97
:1009F8000228F5D90320B8E0104A136F43F0010329
:100A08001367CFE70D4B1A6F42F004021A671A6F8B
:100A180042F001021A67C5E7FFF736FE0646074BA4
:100A28001B6F13F0020F11D0FFF72EFE801B41F24F
:100A380088339842F3D9032097E000BF003802407A
:100A480000004742800E474200700040EDB9A3699C
:100A5800002B00F08980484A926802F00C02082AAC
:100A680051D0022B17D0454B00221A60FFF70CFE1D
:100A78000446414B1B6813F0007F42D0FFF704FE89
:100A8800001B0228F5D903206FE03B4A136C23F0C2
:100A980080531364DBE7394B00221A60FFF7F4FD3B
:100AA8000546354B1B6813F0007F06D0FFF7ECFDB9
:100AB800401B0228F5D9032057E0E369226A134353
:100AC800626A43EA8213A26A5208013A43EA02437D
:100AD800E26A43EA0263284A5360284B01221A60FB
:100AE800FFF7D2FD0446244B1B6813F0007F06D1A4
:100AF800FFF7CAFD001B0228F5D9032035E00020C6
:100B080033E0002031E0012B31D01B4B5B6803F44C
:100B18008001E269914201D0012026E003F03F0202
:100B2800216A8A4201D001201FE0616A47F6C0723B
:100B38001A40B2EB811F01D0012016E003F44031C6
:100B4800A26A5208013AB1EB024F01D001200CE031
:100B580003F07063E26AB3EB026F0AD0012004E08D
:100B680001207047012000E0002002B070BD012084
:100B7800FBE70020F9E700BF003802406000474269
:100B8800264B9B6803F00C03042B44D0082B01D0A0
:100B9800234870472DE9F04B204B5A6802F03F027A
:100BA8005B6813F4800F13D01C4B5968C1F388118C
:100BB80000231C48A1FB0001FFF702FB174B5B68F1
:100BC800C3F3014301335B00B0FBF3F0BDE8F08BE6
:100BD800124B5B68C3F388131E4600275C0100258F
:100BE800E41A65EB0705A90141EA9461A001001B1D
:100BF80061EB0501CB0043EA5073C400A01943EB35
:100C080007018B0243EA90538402204619460023C9
:100C1800FFF7D6FAD2E70348704700BF0038024012
:100C28000024F40040787D01002800F09E8070B513
:100C38000446504B1B6803F007038B4209D2CBB222
:100C48004C4A1370136803F007038B4201D001204C
:100C580070BD236813F0020F17D013F0040F04D0EF
:100C6800454A936843F4E0539360236813F0080FF0
:100C780004D0414A936843F4604393603E4A9368C2
:100C880023F0F003A068034393600D46236813F034
:100C9800010F32D06368012B21D09A1E012A25D971
:100CA800354A126812F0020F61D033498A6822F07F
:100CB800030213438B60FFF7E7FC06462E4B9B6845
:100CC80003F00C036268B3EB820F16D0FFF7DCFC6D
:100CD800801B41F288339842F0D90320B8E7264AAE
:100CE800126812F4003FE0D10120B1E7224A1268ED
:100CF80012F0007FD9D10120AAE71E4B1B6803F030
:100D08000703AB4209D9EAB21A4B1A701B6803F001
:100D18000703AB4201D001209AE7236813F0040FC0
:100D280006D0154A936823F4E053E1680B439360B7
:100D3800236813F0080F07D00F4A936823F4604321
:100D4800216943EAC1039360FFF71AFF0A4B9B68C6
:100D5800C3F30313094AD35CD840094B1860094B05
:100D68001868FFF747FC002072E701207047012050
:100D78006EE700BF003C024000380240540E0008F5
:100D88000000002008000020DFF834D00D480E498C
:100D98000E4A002302E0D458C4500433C4188C42CD
:100DA800F9D30B4A0B4C002301E013600432A24232
:100DB800FBD3FFF715FC00F011F8FFF7C7FB7047EE
:100DC80000000220000000200C0000207C0E00081B
:100DD8000C0000202C000020FEE7000070B50D4E2E
:100DE8000D4CA41BA4100025A54209D10B4E0C4C98
:100DF80000F020F8A41BA4100025A54205D170BD61
:100E080056F8253098470135EEE756F825309847CB
:100E18000135F2E7740E0008740E0008740E00081D
:100E2800780E000802440346934200D1704703F845
:100E3800011BF9E7F8B500BFF8BC08BC9E4670472F
:0C0E4800F8B500BFF8BC08BC9E4670471F
:100E54000000000000000000010203040607080966
:080E640000000000010203047C
:080E6C008CF3FF7F0100000080
:040E7400AD010008C4
:040E780089010008E4
:0C0E7C000024F400010000001000000041
:0400000508000D9151
:00000001FF
